{
  "_format": "hh-sol-artifact-1",
  "contractName": "Marketplace",
  "sourceName": "contracts/Zjp_CampusMarket.sol",
  "abi": [
    {
      "inputs": [],
      "stateMutability": "nonpayable",
      "type": "constructor"
    },
    {
      "inputs": [
        {
          "internalType": "address",
          "name": "spender",
          "type": "address"
        },
        {
          "internalType": "uint256",
          "name": "allowance",
          "type": "uint256"
        },
        {
          "internalType": "uint256",
          "name": "needed",
          "type": "uint256"
        }
      ],
      "name": "ERC20InsufficientAllowance",
      "type": "error"
    },
    {
      "inputs": [
        {
          "internalType": "address",
          "name": "sender",
          "type": "address"
        },
        {
          "internalType": "uint256",
          "name": "balance",
          "type": "uint256"
        },
        {
          "internalType": "uint256",
          "name": "needed",
          "type": "uint256"
        }
      ],
      "name": "ERC20InsufficientBalance",
      "type": "error"
    },
    {
      "inputs": [
        {
          "internalType": "address",
          "name": "approver",
          "type": "address"
        }
      ],
      "name": "ERC20InvalidApprover",
      "type": "error"
    },
    {
      "inputs": [
        {
          "internalType": "address",
          "name": "receiver",
          "type": "address"
        }
      ],
      "name": "ERC20InvalidReceiver",
      "type": "error"
    },
    {
      "inputs": [
        {
          "internalType": "address",
          "name": "sender",
          "type": "address"
        }
      ],
      "name": "ERC20InvalidSender",
      "type": "error"
    },
    {
      "inputs": [
        {
          "internalType": "address",
          "name": "spender",
          "type": "address"
        }
      ],
      "name": "ERC20InvalidSpender",
      "type": "error"
    },
    {
      "inputs": [
        {
          "internalType": "address",
          "name": "owner",
          "type": "address"
        }
      ],
      "name": "OwnableInvalidOwner",
      "type": "error"
    },
    {
      "inputs": [
        {
          "internalType": "address",
          "name": "account",
          "type": "address"
        }
      ],
      "name": "OwnableUnauthorizedAccount",
      "type": "error"
    },
    {
      "anonymous": false,
      "inputs": [
        {
          "indexed": true,
          "internalType": "address",
          "name": "owner",
          "type": "address"
        },
        {
          "indexed": true,
          "internalType": "address",
          "name": "spender",
          "type": "address"
        },
        {
          "indexed": false,
          "internalType": "uint256",
          "name": "value",
          "type": "uint256"
        }
      ],
      "name": "Approval",
      "type": "event"
    },
    {
      "anonymous": false,
      "inputs": [
        {
          "indexed": true,
          "internalType": "address",
          "name": "previousOwner",
          "type": "address"
        },
        {
          "indexed": true,
          "internalType": "address",
          "name": "newOwner",
          "type": "address"
        }
      ],
      "name": "OwnershipTransferred",
      "type": "event"
    },
    {
      "anonymous": false,
      "inputs": [
        {
          "indexed": true,
          "internalType": "uint256",
          "name": "productId",
          "type": "uint256"
        },
        {
          "indexed": true,
          "internalType": "address",
          "name": "seller",
          "type": "address"
        }
      ],
      "name": "ProductAdded",
      "type": "event"
    },
    {
      "anonymous": false,
      "inputs": [
        {
          "indexed": true,
          "internalType": "address",
          "name": "from",
          "type": "address"
        },
        {
          "indexed": false,
          "internalType": "uint256",
          "name": "amount",
          "type": "uint256"
        },
        {
          "indexed": false,
          "internalType": "uint256",
          "name": "ethReceived",
          "type": "uint256"
        }
      ],
      "name": "TokenSwapped",
      "type": "event"
    },
    {
      "anonymous": false,
      "inputs": [
        {
          "indexed": true,
          "internalType": "address",
          "name": "from",
          "type": "address"
        },
        {
          "indexed": true,
          "internalType": "address",
          "name": "to",
          "type": "address"
        },
        {
          "indexed": false,
          "internalType": "uint256",
          "name": "value",
          "type": "uint256"
        }
      ],
      "name": "Transfer",
      "type": "event"
    },
    {
      "inputs": [
        {
          "internalType": "uint256",
          "name": "_productId",
          "type": "uint256"
        }
      ],
      "name": "addFavoriteProduct",
      "outputs": [],
      "stateMutability": "nonpayable",
      "type": "function"
    },
    {
      "inputs": [
        {
          "internalType": "string",
          "name": "_name",
          "type": "string"
        },
        {
          "internalType": "string",
          "name": "_description",
          "type": "string"
        },
        {
          "internalType": "uint256",
          "name": "_price",
          "type": "uint256"
        },
        {
          "internalType": "uint256",
          "name": "_quantity",
          "type": "uint256"
        },
        {
          "internalType": "string",
          "name": "_image",
          "type": "string"
        },
        {
          "internalType": "string",
          "name": "_category",
          "type": "string"
        }
      ],
      "name": "addProduct",
      "outputs": [],
      "stateMutability": "nonpayable",
      "type": "function"
    },
    {
      "inputs": [
        {
          "internalType": "uint256",
          "name": "_index",
          "type": "uint256"
        },
        {
          "internalType": "string",
          "name": "_comment",
          "type": "string"
        }
      ],
      "name": "addReview",
      "outputs": [],
      "stateMutability": "nonpayable",
      "type": "function"
    },
    {
      "inputs": [
        {
          "internalType": "address",
          "name": "owner",
          "type": "address"
        },
        {
          "internalType": "address",
          "name": "spender",
          "type": "address"
        }
      ],
      "name": "allowance",
      "outputs": [
        {
          "internalType": "uint256",
          "name": "",
          "type": "uint256"
        }
      ],
      "stateMutability": "view",
      "type": "function"
    },
    {
      "inputs": [
        {
          "internalType": "address",
          "name": "spender",
          "type": "address"
        },
        {
          "internalType": "uint256",
          "name": "value",
          "type": "uint256"
        }
      ],
      "name": "approve",
      "outputs": [
        {
          "internalType": "bool",
          "name": "",
          "type": "bool"
        }
      ],
      "stateMutability": "nonpayable",
      "type": "function"
    },
    {
      "inputs": [
        {
          "internalType": "address",
          "name": "account",
          "type": "address"
        }
      ],
      "name": "balanceOf",
      "outputs": [
        {
          "internalType": "uint256",
          "name": "",
          "type": "uint256"
        }
      ],
      "stateMutability": "view",
      "type": "function"
    },
    {
      "inputs": [],
      "name": "browseProducts",
      "outputs": [
        {
          "components": [
            {
              "internalType": "string",
              "name": "name",
              "type": "string"
            },
            {
              "internalType": "string",
              "name": "description",
              "type": "string"
            },
            {
              "internalType": "uint256",
              "name": "price",
              "type": "uint256"
            },
            {
              "internalType": "uint256",
              "name": "quantity",
              "type": "uint256"
            },
            {
              "internalType": "string",
              "name": "image",
              "type": "string"
            },
            {
              "internalType": "uint256",
              "name": "timestamp",
              "type": "uint256"
            },
            {
              "internalType": "bool",
              "name": "active",
              "type": "bool"
            },
            {
              "internalType": "address",
              "name": "seller",
              "type": "address"
            },
            {
              "internalType": "string",
              "name": "category",
              "type": "string"
            }
          ],
          "internalType": "struct Marketplace.Product[]",
          "name": "",
          "type": "tuple[]"
        }
      ],
      "stateMutability": "view",
      "type": "function"
    },
    {
      "inputs": [
        {
          "internalType": "uint256",
          "name": "_index",
          "type": "uint256"
        },
        {
          "internalType": "uint256",
          "name": "_quantity",
          "type": "uint256"
        }
      ],
      "name": "buyProduct",
      "outputs": [],
      "stateMutability": "nonpayable",
      "type": "function"
    },
    {
      "inputs": [],
      "name": "decimals",
      "outputs": [
        {
          "internalType": "uint8",
          "name": "",
          "type": "uint8"
        }
      ],
      "stateMutability": "view",
      "type": "function"
    },
    {
      "inputs": [
        {
          "internalType": "uint256",
          "name": "_index",
          "type": "uint256"
        }
      ],
      "name": "getProduct",
      "outputs": [
        {
          "components": [
            {
              "internalType": "string",
              "name": "name",
              "type": "string"
            },
            {
              "internalType": "string",
              "name": "description",
              "type": "string"
            },
            {
              "internalType": "uint256",
              "name": "price",
              "type": "uint256"
            },
            {
              "internalType": "uint256",
              "name": "quantity",
              "type": "uint256"
            },
            {
              "internalType": "string",
              "name": "image",
              "type": "string"
            },
            {
              "internalType": "uint256",
              "name": "timestamp",
              "type": "uint256"
            },
            {
              "internalType": "bool",
              "name": "active",
              "type": "bool"
            },
            {
              "internalType": "address",
              "name": "seller",
              "type": "address"
            },
            {
              "internalType": "string",
              "name": "category",
              "type": "string"
            }
          ],
          "internalType": "struct Marketplace.Product",
          "name": "",
          "type": "tuple"
        }
      ],
      "stateMutability": "view",
      "type": "function"
    },
    {
      "inputs": [],
      "name": "getProductCount",
      "outputs": [
        {
          "internalType": "uint256",
          "name": "",
          "type": "uint256"
        }
      ],
      "stateMutability": "view",
      "type": "function"
    },
    {
      "inputs": [
        {
          "internalType": "uint256",
          "name": "_index",
          "type": "uint256"
        }
      ],
      "name": "getReviews",
      "outputs": [
        {
          "components": [
            {
              "internalType": "address",
              "name": "reviewer",
              "type": "address"
            },
            {
              "internalType": "string",
              "name": "comment",
              "type": "string"
            },
            {
              "internalType": "uint256",
              "name": "timestamp",
              "type": "uint256"
            }
          ],
          "internalType": "struct Marketplace.Review[]",
          "name": "",
          "type": "tuple[]"
        }
      ],
      "stateMutability": "view",
      "type": "function"
    },
    {
      "inputs": [
        {
          "internalType": "address",
          "name": "_user",
          "type": "address"
        }
      ],
      "name": "getUserBalance",
      "outputs": [
        {
          "internalType": "uint256",
          "name": "",
          "type": "uint256"
        }
      ],
      "stateMutability": "view",
      "type": "function"
    },
    {
      "inputs": [],
      "name": "getUserTransactionHistory",
      "outputs": [
        {
          "components": [
            {
              "internalType": "address",
              "name": "buyer",
              "type": "address"
            },
            {
              "internalType": "address",
              "name": "seller",
              "type": "address"
            },
            {
              "internalType": "uint256",
              "name": "productId",
              "type": "uint256"
            },
            {
              "internalType": "string",
              "name": "productName",
              "type": "string"
            },
            {
              "internalType": "uint256",
              "name": "amount",
              "type": "uint256"
            },
            {
              "internalType": "bool",
              "name": "reviewed",
              "type": "bool"
            }
          ],
          "internalType": "struct Marketplace.Transaction[]",
          "name": "",
          "type": "tuple[]"
        }
      ],
      "stateMutability": "view",
      "type": "function"
    },
    {
      "inputs": [
        {
          "internalType": "string",
          "name": "_username",
          "type": "string"
        },
        {
          "internalType": "string",
          "name": "_password",
          "type": "string"
        }
      ],
      "name": "login",
      "outputs": [
        {
          "internalType": "bool",
          "name": "",
          "type": "bool"
        }
      ],
      "stateMutability": "view",
      "type": "function"
    },
    {
      "inputs": [],
      "name": "name",
      "outputs": [
        {
          "internalType": "string",
          "name": "",
          "type": "string"
        }
      ],
      "stateMutability": "view",
      "type": "function"
    },
    {
      "inputs": [],
      "name": "owner",
      "outputs": [
        {
          "internalType": "address",
          "name": "",
          "type": "address"
        }
      ],
      "stateMutability": "view",
      "type": "function"
    },
    {
      "inputs": [
        {
          "internalType": "string",
          "name": "_username",
          "type": "string"
        },
        {
          "internalType": "string",
          "name": "_gender",
          "type": "string"
        },
        {
          "internalType": "string",
          "name": "_contact",
          "type": "string"
        },
        {
          "internalType": "string",
          "name": "_password",
          "type": "string"
        }
      ],
      "name": "registerBuyer",
      "outputs": [],
      "stateMutability": "nonpayable",
      "type": "function"
    },
    {
      "inputs": [
        {
          "internalType": "string",
          "name": "_username",
          "type": "string"
        },
        {
          "internalType": "string",
          "name": "_gender",
          "type": "string"
        },
        {
          "internalType": "string",
          "name": "_contact",
          "type": "string"
        },
        {
          "internalType": "string",
          "name": "_password",
          "type": "string"
        }
      ],
      "name": "registerSeller",
      "outputs": [],
      "stateMutability": "nonpayable",
      "type": "function"
    },
    {
      "inputs": [],
      "name": "renounceOwnership",
      "outputs": [],
      "stateMutability": "nonpayable",
      "type": "function"
    },
    {
      "inputs": [],
      "name": "swapTokensForEth",
      "outputs": [],
      "stateMutability": "payable",
      "type": "function"
    },
    {
      "inputs": [],
      "name": "symbol",
      "outputs": [
        {
          "internalType": "string",
          "name": "",
          "type": "string"
        }
      ],
      "stateMutability": "view",
      "type": "function"
    },
    {
      "inputs": [],
      "name": "totalSupply",
      "outputs": [
        {
          "internalType": "uint256",
          "name": "",
          "type": "uint256"
        }
      ],
      "stateMutability": "view",
      "type": "function"
    },
    {
      "inputs": [
        {
          "internalType": "address",
          "name": "to",
          "type": "address"
        },
        {
          "internalType": "uint256",
          "name": "value",
          "type": "uint256"
        }
      ],
      "name": "transfer",
      "outputs": [
        {
          "internalType": "bool",
          "name": "",
          "type": "bool"
        }
      ],
      "stateMutability": "nonpayable",
      "type": "function"
    },
    {
      "inputs": [
        {
          "internalType": "address",
          "name": "from",
          "type": "address"
        },
        {
          "internalType": "address",
          "name": "to",
          "type": "address"
        },
        {
          "internalType": "uint256",
          "name": "value",
          "type": "uint256"
        }
      ],
      "name": "transferFrom",
      "outputs": [
        {
          "internalType": "bool",
          "name": "",
          "type": "bool"
        }
      ],
      "stateMutability": "nonpayable",
      "type": "function"
    },
    {
      "inputs": [
        {
          "internalType": "address",
          "name": "newOwner",
          "type": "address"
        }
      ],
      "name": "transferOwnership",
      "outputs": [],
      "stateMutability": "nonpayable",
      "type": "function"
    },
    {
      "inputs": [],
      "name": "viewFavoriteProducts",
      "outputs": [
        {
          "internalType": "uint256[]",
          "name": "",
          "type": "uint256[]"
        }
      ],
      "stateMutability": "view",
      "type": "function"
    }
  ],
  "bytecode": "0x60806040523480156200001157600080fd5b50336040518060400160405280601081526020017f4d61726b6574706c616365546f6b656e000000000000000000000000000000008152506040518060400160405280600381526020017f454a4b00000000000000000000000000000000000000000000000000000000008152508160039081620000909190620004b3565b508060049081620000a29190620004b3565b505050600073ffffffffffffffffffffffffffffffffffffffff168173ffffffffffffffffffffffffffffffffffffffff16036200011a5760006040517f1e4fbdf7000000000000000000000000000000000000000000000000000000008152600401620001119190620005df565b60405180910390fd5b6200012b816200017360201b60201c565b5033600660006101000a81548173ffffffffffffffffffffffffffffffffffffffff021916908373ffffffffffffffffffffffffffffffffffffffff160217905550620005fc565b6000600560009054906101000a900473ffffffffffffffffffffffffffffffffffffffff16905081600560006101000a81548173ffffffffffffffffffffffffffffffffffffffff021916908373ffffffffffffffffffffffffffffffffffffffff1602179055508173ffffffffffffffffffffffffffffffffffffffff168173ffffffffffffffffffffffffffffffffffffffff167f8be0079c531659141344cd1fd0a4f28419497f9722a3daafe3b4186f6b6457e060405160405180910390a35050565b600081519050919050565b7f4e487b7100000000000000000000000000000000000000000000000000000000600052604160045260246000fd5b7f4e487b7100000000000000000000000000000000000000000000000000000000600052602260045260246000fd5b60006002820490506001821680620002bb57607f821691505b602082108103620002d157620002d062000273565b5b50919050565b60008190508160005260206000209050919050565b60006020601f8301049050919050565b600082821b905092915050565b6000600883026200033b7fffffffffffffffffffffffffffffffffffffffffffffffffffffffffffffffff82620002fc565b620003478683620002fc565b95508019841693508086168417925050509392505050565b6000819050919050565b6000819050919050565b6000620003946200038e62000388846200035f565b62000369565b6200035f565b9050919050565b6000819050919050565b620003b08362000373565b620003c8620003bf826200039b565b84845462000309565b825550505050565b600090565b620003df620003d0565b620003ec818484620003a5565b505050565b5b81811015620004145762000408600082620003d5565b600181019050620003f2565b5050565b601f82111562000463576200042d81620002d7565b6200043884620002ec565b8101602085101562000448578190505b620004606200045785620002ec565b830182620003f1565b50505b505050565b600082821c905092915050565b6000620004886000198460080262000468565b1980831691505092915050565b6000620004a3838362000475565b9150826002028217905092915050565b620004be8262000239565b67ffffffffffffffff811115620004da57620004d962000244565b5b620004e68254620002a2565b620004f382828562000418565b600060209050601f8311600181146200052b576000841562000516578287015190505b62000522858262000495565b86555062000592565b601f1984166200053b86620002d7565b60005b8281101562000565578489015182556001820191506020850194506020810190506200053e565b8683101562000585578489015162000581601f89168262000475565b8355505b6001600288020188555050505b505050505050565b600073ffffffffffffffffffffffffffffffffffffffff82169050919050565b6000620005c7826200059a565b9050919050565b620005d981620005ba565b82525050565b6000602082019050620005f66000830184620005ce565b92915050565b615037806200060c6000396000f3fe60806040526004361061019c5760003560e01c80635bb0c5d6116100ec578063b9db15b41161008a578063cd04a6cb11610064578063cd04a6cb146105cd578063dd62ed3e146105f8578063f2fde38b14610635578063f76ee2ec1461065e5761019c565b8063b9db15b41461053c578063c4ec4f0514610579578063c979affb146105a25761019c565b80638da5cb5b116100c65780638da5cb5b1461046c57806395d89b41146104975780639d4a2255146104c2578063a9059cbb146104ff5761019c565b80635bb0c5d6146103ef57806370a0823114610418578063715018a6146104555761019c565b8063276ece8611610159578063477348921161013357806347734892146103215780634a348da91461035e57806353b628661461038957806358467dbc146103b25761019c565b8063276ece86146102c3578063313ce567146102ec578063396ecb49146103175761019c565b806306fdde03146101a157806308f69dad146101cc578063095ea7b3146101f557806315c24ed91461023257806318160ddd1461025b57806323b872dd14610286575b600080fd5b3480156101ad57600080fd5b506101b6610689565b6040516101c39190613633565b60405180910390f35b3480156101d857600080fd5b506101f360048036038101906101ee91906136c4565b61071b565b005b34801561020157600080fd5b5061021c60048036038101906102179190613841565b610883565b604051610229919061389c565b60405180910390f35b34801561023e57600080fd5b50610259600480360381019061025491906136c4565b6108a6565b005b34801561026757600080fd5b50610270610a0e565b60405161027d91906138c6565b60405180910390f35b34801561029257600080fd5b506102ad60048036038101906102a891906138e1565b610a18565b6040516102ba919061389c565b60405180910390f35b3480156102cf57600080fd5b506102ea60048036038101906102e59190613934565b610a47565b005b3480156102f857600080fd5b50610301610b42565b60405161030e919061397d565b60405180910390f35b61031f610b4b565b005b34801561032d57600080fd5b5061034860048036038101906103439190613998565b610bd3565b60405161035591906138c6565b60405180910390f35b34801561036a57600080fd5b50610373610be5565b60405161038091906138c6565b60405180910390f35b34801561039557600080fd5b506103b060048036038101906103ab91906139c5565b610bef565b005b3480156103be57600080fd5b506103d960048036038101906103d49190613a05565b6112b8565b6040516103e6919061389c565b60405180910390f35b3480156103fb57600080fd5b5061041660048036038101906104119190613a86565b6114f7565b005b34801561042457600080fd5b5061043f600480360381019061043a9190613998565b611899565b60405161044c91906138c6565b60405180910390f35b34801561046157600080fd5b5061046a6118e1565b005b34801561047857600080fd5b506104816118f5565b60405161048e9190613af5565b60405180910390f35b3480156104a357600080fd5b506104ac61191f565b6040516104b99190613633565b60405180910390f35b3480156104ce57600080fd5b506104e960048036038101906104e49190613934565b6119b1565b6040516104f69190613c8a565b60405180910390f35b34801561050b57600080fd5b5061052660048036038101906105219190613841565b611c63565b604051610533919061389c565b60405180910390f35b34801561054857600080fd5b50610563600480360381019061055e9190613934565b611c86565b6040516105709190613d95565b60405180910390f35b34801561058557600080fd5b506105a0600480360381019061059b9190613db7565b611fcf565b005b3480156105ae57600080fd5b506105b761246f565b6040516105c49190614012565b60405180910390f35b3480156105d957600080fd5b506105e261276f565b6040516105ef91906141d0565b60405180910390f35b34801561060457600080fd5b5061061f600480360381019061061a91906141f2565b612aa6565b60405161062c91906138c6565b60405180910390f35b34801561064157600080fd5b5061065c60048036038101906106579190613998565b612b2d565b005b34801561066a57600080fd5b50610673612bb3565b60405161068091906142e1565b60405180910390f35b60606003805461069890614332565b80601f01602080910402602001604051908101604052809291908181526020018280546106c490614332565b80156107115780601f106106e657610100808354040283529160200191610711565b820191906000526020600020905b8154815290600101906020018083116106f457829003601f168201915b5050505050905090565b600760003373ffffffffffffffffffffffffffffffffffffffff1673ffffffffffffffffffffffffffffffffffffffff16815260200190815260200160002060040160009054906101000a900460ff16156107ab576040517f08c379a00000000000000000000000000000000000000000000000000000000081526004016107a2906143af565b60405180910390fd5b6000600760003373ffffffffffffffffffffffffffffffffffffffff1673ffffffffffffffffffffffffffffffffffffffff168152602001908152602001600020905088888260000191826108019291906145b5565b5086868260010191826108159291906145b5565b5084848260020191826108299291906145b5565b50828282600301918261083d9291906145b5565b5060018160040160006101000a81548160ff02191690831515021790555060018160040160016101000a81548160ff021916908315150217905550505050505050505050565b60008061088e612cda565b905061089b818585612ce2565b600191505092915050565b600760003373ffffffffffffffffffffffffffffffffffffffff1673ffffffffffffffffffffffffffffffffffffffff16815260200190815260200160002060040160009054906101000a900460ff1615610936576040517f08c379a000000000000000000000000000000000000000000000000000000000815260040161092d906143af565b60405180910390fd5b6000600760003373ffffffffffffffffffffffffffffffffffffffff1673ffffffffffffffffffffffffffffffffffffffff1681526020019081526020016000209050888882600001918261098c9291906145b5565b5086868260010191826109a09291906145b5565b5084848260020191826109b49291906145b5565b5082828260030191826109c89291906145b5565b5060018160040160006101000a81548160ff02191690831515021790555060018160040160026101000a81548160ff021916908315150217905550505050505050505050565b6000600254905090565b600080610a23612cda565b9050610a30858285612cf4565b610a3b858585612d88565b60019150509392505050565b600760003373ffffffffffffffffffffffffffffffffffffffff1673ffffffffffffffffffffffffffffffffffffffff16815260200190815260200160002060040160009054906101000a900460ff16610ad6576040517f08c379a0000000000000000000000000000000000000000000000000000000008152600401610acd906146d1565b60405180910390fd5b600760003373ffffffffffffffffffffffffffffffffffffffff1673ffffffffffffffffffffffffffffffffffffffff168152602001908152602001600020600a0181908060018154018082558091505060019003906000526020600020016000909190919091505550565b60006012905090565b60006064670de0b6b3a764000034610b63919061474f565b610b6d9190614780565b9050610b793382612e7c565b610b816118f5565b73ffffffffffffffffffffffffffffffffffffffff167fd5a1cd88ddd329cc1ddf861a21708efa9ef3136b88e1420c21f91ef6f95ad0243483604051610bc89291906147c2565b60405180910390a250565b6000610bde82611899565b9050919050565b6000600954905090565b6009548210610c33576040517f08c379a0000000000000000000000000000000000000000000000000000000008152600401610c2a90614837565b60405180910390fd5b600760003373ffffffffffffffffffffffffffffffffffffffff1673ffffffffffffffffffffffffffffffffffffffff16815260200190815260200160002060040160009054906101000a900460ff16610cc2576040517f08c379a0000000000000000000000000000000000000000000000000000000008152600401610cb9906146d1565b60405180910390fd5b600760003373ffffffffffffffffffffffffffffffffffffffff1673ffffffffffffffffffffffffffffffffffffffff16815260200190815260200160002060040160019054906101000a900460ff16610d51576040517f08c379a0000000000000000000000000000000000000000000000000000000008152600401610d48906148c9565b60405180910390fd5b8060086000848152602001908152602001600020600301541015610daa576040517f08c379a0000000000000000000000000000000000000000000000000000000008152600401610da190614935565b60405180910390fd5b600115156008600084815260200190815260200160002060060160009054906101000a900460ff16151514610e14576040517f08c379a0000000000000000000000000000000000000000000000000000000008152600401610e0b906149c7565b60405180910390fd5b6000816008600085815260200190815260200160002060020154610e389190614780565b905080610e4433611899565b1015610e85576040517f08c379a0000000000000000000000000000000000000000000000000000000008152600401610e7c90614a33565b60405180910390fd5b610ec6336008600086815260200190815260200160002060060160019054906101000a900473ffffffffffffffffffffffffffffffffffffffff1683612d88565b81600860008581526020019081526020016000206003016000828254610eec9190614a53565b925050819055506040518060c001604052803373ffffffffffffffffffffffffffffffffffffffff1681526020016008600086815260200190815260200160002060060160019054906101000a900473ffffffffffffffffffffffffffffffffffffffff1673ffffffffffffffffffffffffffffffffffffffff168152602001848152602001600860008681526020019081526020016000206000018054610f9390614332565b80601f0160208091040260200160405190810160405280929190818152602001828054610fbf90614332565b801561100c5780601f10610fe15761010080835404028352916020019161100c565b820191906000526020600020905b815481529060010190602001808311610fef57829003601f168201915b5050505050815260200182815260200160001515815250600760003373ffffffffffffffffffffffffffffffffffffffff1673ffffffffffffffffffffffffffffffffffffffff1681526020019081526020016000206006016000600760003373ffffffffffffffffffffffffffffffffffffffff1673ffffffffffffffffffffffffffffffffffffffff16815260200190815260200160002060070154815260200190815260200160002060008201518160000160006101000a81548173ffffffffffffffffffffffffffffffffffffffff021916908373ffffffffffffffffffffffffffffffffffffffff16021790555060208201518160010160006101000a81548173ffffffffffffffffffffffffffffffffffffffff021916908373ffffffffffffffffffffffffffffffffffffffff1602179055506040820151816002015560608201518160030190816111659190614a87565b506080820151816004015560a08201518160050160006101000a81548160ff021916908315150217905550905050600760003373ffffffffffffffffffffffffffffffffffffffff1673ffffffffffffffffffffffffffffffffffffffff16815260200190815260200160002060070160008154809291906111e690614b59565b919050555060006008600085815260200190815260200160002060030154036112b357600860008481526020019081526020016000206000808201600061122d9190613447565b60018201600061123d9190613447565b6002820160009055600382016000905560048201600061125d9190613447565b60058201600090556006820160006101000a81549060ff02191690556006820160016101000a81549073ffffffffffffffffffffffffffffffffffffffff02191690556007820160006112b09190613447565b50505b505050565b6000600760003373ffffffffffffffffffffffffffffffffffffffff1673ffffffffffffffffffffffffffffffffffffffff16815260200190815260200160002060040160009054906101000a900460ff16611349576040517f08c379a0000000000000000000000000000000000000000000000000000000008152600401611340906146d1565b60405180910390fd5b848460405160200161135c929190614be0565b60405160208183030381529060405280519060200120600760003373ffffffffffffffffffffffffffffffffffffffff1673ffffffffffffffffffffffffffffffffffffffff1681526020019081526020016000206000016040516020016113c49190614c7c565b604051602081830303815290604052805190602001201461141a576040517f08c379a000000000000000000000000000000000000000000000000000000000815260040161141190614cdf565b60405180910390fd5b828260405160200161142d929190614be0565b60405160208183030381529060405280519060200120600760003373ffffffffffffffffffffffffffffffffffffffff1673ffffffffffffffffffffffffffffffffffffffff1681526020019081526020016000206003016040516020016114959190614c7c565b60405160208183030381529060405280519060200120146114eb576040517f08c379a00000000000000000000000000000000000000000000000000000000081526004016114e290614d4b565b60405180910390fd5b60019050949350505050565b600954831061153b576040517f08c379a000000000000000000000000000000000000000000000000000000000815260040161153290614837565b60405180910390fd5b600760003373ffffffffffffffffffffffffffffffffffffffff1673ffffffffffffffffffffffffffffffffffffffff16815260200190815260200160002060040160009054906101000a900460ff166115ca576040517f08c379a00000000000000000000000000000000000000000000000000000000081526004016115c1906146d1565b60405180910390fd5b600760003373ffffffffffffffffffffffffffffffffffffffff1673ffffffffffffffffffffffffffffffffffffffff16815260200190815260200160002060040160019054906101000a900460ff16611659576040517f08c379a000000000000000000000000000000000000000000000000000000000815260040161165090614ddd565b60405180910390fd5b60405180606001604052803373ffffffffffffffffffffffffffffffffffffffff16815260200183838080601f016020809104026020016040519081016040528093929190818152602001838380828437600081840152601f19601f82011690508083019250505050505050815260200142815250600760003373ffffffffffffffffffffffffffffffffffffffff1673ffffffffffffffffffffffffffffffffffffffff1681526020019081526020016000206008016000600760003373ffffffffffffffffffffffffffffffffffffffff1673ffffffffffffffffffffffffffffffffffffffff16815260200190815260200160002060090154815260200190815260200160002060008201518160000160006101000a81548173ffffffffffffffffffffffffffffffffffffffff021916908373ffffffffffffffffffffffffffffffffffffffff16021790555060208201518160010190816117bf9190614a87565b5060408201518160020155905050600760003373ffffffffffffffffffffffffffffffffffffffff1673ffffffffffffffffffffffffffffffffffffffff168152602001908152602001600020600901600081548092919061182090614b59565b91905055506001600760003373ffffffffffffffffffffffffffffffffffffffff1673ffffffffffffffffffffffffffffffffffffffff168152602001908152602001600020600601600085815260200190815260200160002060050160006101000a81548160ff021916908315150217905550505050565b60008060008373ffffffffffffffffffffffffffffffffffffffff1673ffffffffffffffffffffffffffffffffffffffff168152602001908152602001600020549050919050565b6118e9612efe565b6118f36000612f85565b565b6000600560009054906101000a900473ffffffffffffffffffffffffffffffffffffffff16905090565b60606004805461192e90614332565b80601f016020809104026020016040519081016040528092919081815260200182805461195a90614332565b80156119a75780601f1061197c576101008083540402835291602001916119a7565b820191906000526020600020905b81548152906001019060200180831161198a57829003601f168201915b5050505050905090565b606060095482106119f7576040517f08c379a00000000000000000000000000000000000000000000000000000000081526004016119ee90614837565b60405180910390fd5b6000600760003373ffffffffffffffffffffffffffffffffffffffff1673ffffffffffffffffffffffffffffffffffffffff1681526020019081526020016000206009015467ffffffffffffffff811115611a5557611a546143da565b5b604051908082528060200260200182016040528015611a8e57816020015b611a7b613487565b815260200190600190039081611a735790505b50905060005b600760003373ffffffffffffffffffffffffffffffffffffffff1673ffffffffffffffffffffffffffffffffffffffff16815260200190815260200160002060090154811015611c5957600760003373ffffffffffffffffffffffffffffffffffffffff1673ffffffffffffffffffffffffffffffffffffffff16815260200190815260200160002060080160008281526020019081526020016000206040518060600160405290816000820160009054906101000a900473ffffffffffffffffffffffffffffffffffffffff1673ffffffffffffffffffffffffffffffffffffffff1673ffffffffffffffffffffffffffffffffffffffff168152602001600182018054611ba290614332565b80601f0160208091040260200160405190810160405280929190818152602001828054611bce90614332565b8015611c1b5780601f10611bf057610100808354040283529160200191611c1b565b820191906000526020600020905b815481529060010190602001808311611bfe57829003601f168201915b50505050508152602001600282015481525050828281518110611c4157611c40614dfd565b5b60200260200101819052508080600101915050611a94565b5080915050919050565b600080611c6e612cda565b9050611c7b818585612d88565b600191505092915050565b611c8e6134be565b6009548210611cd2576040517f08c379a0000000000000000000000000000000000000000000000000000000008152600401611cc990614837565b60405180910390fd5b6008600083815260200190815260200160002060405180610120016040529081600082018054611d0190614332565b80601f0160208091040260200160405190810160405280929190818152602001828054611d2d90614332565b8015611d7a5780601f10611d4f57610100808354040283529160200191611d7a565b820191906000526020600020905b815481529060010190602001808311611d5d57829003601f168201915b50505050508152602001600182018054611d9390614332565b80601f0160208091040260200160405190810160405280929190818152602001828054611dbf90614332565b8015611e0c5780601f10611de157610100808354040283529160200191611e0c565b820191906000526020600020905b815481529060010190602001808311611def57829003601f168201915b505050505081526020016002820154815260200160038201548152602001600482018054611e3990614332565b80601f0160208091040260200160405190810160405280929190818152602001828054611e6590614332565b8015611eb25780601f10611e8757610100808354040283529160200191611eb2565b820191906000526020600020905b815481529060010190602001808311611e9557829003601f168201915b50505050508152602001600582015481526020016006820160009054906101000a900460ff161515151581526020016006820160019054906101000a900473ffffffffffffffffffffffffffffffffffffffff1673ffffffffffffffffffffffffffffffffffffffff1673ffffffffffffffffffffffffffffffffffffffff168152602001600782018054611f4690614332565b80601f0160208091040260200160405190810160405280929190818152602001828054611f7290614332565b8015611fbf5780601f10611f9457610100808354040283529160200191611fbf565b820191906000526020600020905b815481529060010190602001808311611fa257829003601f168201915b5050505050815250509050919050565b600760003373ffffffffffffffffffffffffffffffffffffffff1673ffffffffffffffffffffffffffffffffffffffff16815260200190815260200160002060040160029054906101000a900460ff1661205e576040517f08c379a000000000000000000000000000000000000000000000000000000000815260040161205590614e78565b60405180910390fd5b6040518061012001604052808b8b8080601f016020809104026020016040519081016040528093929190818152602001838380828437600081840152601f19601f82011690508083019250505050505050815260200189898080601f016020809104026020016040519081016040528093929190818152602001838380828437600081840152601f19601f82011690508083019250505050505050815260200187815260200186815260200185858080601f016020809104026020016040519081016040528093929190818152602001838380828437600081840152601f19601f8201169050808301925050505050505081526020014281526020016001151581526020013373ffffffffffffffffffffffffffffffffffffffff16815260200183838080601f016020809104026020016040519081016040528093929190818152602001838380828437600081840152601f19601f8201169050808301925050505050505081525060086000600954815260200190815260200160002060008201518160000190816121f19190614a87565b5060208201518160010190816122079190614a87565b50604082015181600201556060820151816003015560808201518160040190816122319190614a87565b5060a0820151816005015560c08201518160060160006101000a81548160ff02191690831515021790555060e08201518160060160016101000a81548173ffffffffffffffffffffffffffffffffffffffff021916908373ffffffffffffffffffffffffffffffffffffffff1602179055506101008201518160070190816122b99190614a87565b509050503373ffffffffffffffffffffffffffffffffffffffff166009547f61394ce83505fd053362beef6b6476dc5cdd4e4dd515dd026ee6ed7f4d473cd060405160405180910390a3600a6008600060095481526020019081526020016000209080600181540180825580915050600190039060005260206000209060080201600090919091909150600082018160000190816123579190614eae565b506001820181600101908161236c9190614eae565b506002820154816002015560038201548160030155600482018160040190816123959190614eae565b50600582015481600501556006820160009054906101000a900460ff168160060160006101000a81548160ff0219169083151502179055506006820160019054906101000a900473ffffffffffffffffffffffffffffffffffffffff168160060160016101000a81548173ffffffffffffffffffffffffffffffffffffffff021916908373ffffffffffffffffffffffffffffffffffffffff160217905550600782018160070190816124489190614eae565b5050506009600081548092919061245e90614b59565b919050555050505050505050505050565b6060600760003373ffffffffffffffffffffffffffffffffffffffff1673ffffffffffffffffffffffffffffffffffffffff16815260200190815260200160002060040160009054906101000a900460ff16612500576040517f08c379a00000000000000000000000000000000000000000000000000000000081526004016124f7906146d1565b60405180910390fd5b6000600760003373ffffffffffffffffffffffffffffffffffffffff1673ffffffffffffffffffffffffffffffffffffffff16815260200190815260200160002090506000816007015467ffffffffffffffff811115612563576125626143da565b5b60405190808252806020026020018201604052801561259c57816020015b612589613522565b8152602001906001900390816125815790505b50905060005b8260070154811015612766578260060160008281526020019081526020016000206040518060c00160405290816000820160009054906101000a900473ffffffffffffffffffffffffffffffffffffffff1673ffffffffffffffffffffffffffffffffffffffff1673ffffffffffffffffffffffffffffffffffffffff1681526020016001820160009054906101000a900473ffffffffffffffffffffffffffffffffffffffff1673ffffffffffffffffffffffffffffffffffffffff1673ffffffffffffffffffffffffffffffffffffffff1681526020016002820154815260200160038201805461269490614332565b80601f01602080910402602001604051908101604052809291908181526020018280546126c090614332565b801561270d5780601f106126e25761010080835404028352916020019161270d565b820191906000526020600020905b8154815290600101906020018083116126f057829003601f168201915b50505050508152602001600482015481526020016005820160009054906101000a900460ff16151515158152505082828151811061274e5761274d614dfd565b5b602002602001018190525080806001019150506125a2565b50809250505090565b6060600a805480602002602001604051908101604052809291908181526020016000905b82821015612a9d5783829060005260206000209060080201604051806101200160405290816000820180546127c790614332565b80601f01602080910402602001604051908101604052809291908181526020018280546127f390614332565b80156128405780601f1061281557610100808354040283529160200191612840565b820191906000526020600020905b81548152906001019060200180831161282357829003601f168201915b5050505050815260200160018201805461285990614332565b80601f016020809104026020016040519081016040528092919081815260200182805461288590614332565b80156128d25780601f106128a7576101008083540402835291602001916128d2565b820191906000526020600020905b8154815290600101906020018083116128b557829003601f168201915b5050505050815260200160028201548152602001600382015481526020016004820180546128ff90614332565b80601f016020809104026020016040519081016040528092919081815260200182805461292b90614332565b80156129785780601f1061294d57610100808354040283529160200191612978565b820191906000526020600020905b81548152906001019060200180831161295b57829003601f168201915b50505050508152602001600582015481526020016006820160009054906101000a900460ff161515151581526020016006820160019054906101000a900473ffffffffffffffffffffffffffffffffffffffff1673ffffffffffffffffffffffffffffffffffffffff1673ffffffffffffffffffffffffffffffffffffffff168152602001600782018054612a0c90614332565b80601f0160208091040260200160405190810160405280929190818152602001828054612a3890614332565b8015612a855780601f10612a5a57610100808354040283529160200191612a85565b820191906000526020600020905b815481529060010190602001808311612a6857829003601f168201915b50505050508152505081526020019060010190612793565b50505050905090565b6000600160008473ffffffffffffffffffffffffffffffffffffffff1673ffffffffffffffffffffffffffffffffffffffff16815260200190815260200160002060008373ffffffffffffffffffffffffffffffffffffffff1673ffffffffffffffffffffffffffffffffffffffff16815260200190815260200160002054905092915050565b612b35612efe565b600073ffffffffffffffffffffffffffffffffffffffff168173ffffffffffffffffffffffffffffffffffffffff1603612ba75760006040517f1e4fbdf7000000000000000000000000000000000000000000000000000000008152600401612b9e9190613af5565b60405180910390fd5b612bb081612f85565b50565b6060600760003373ffffffffffffffffffffffffffffffffffffffff1673ffffffffffffffffffffffffffffffffffffffff16815260200190815260200160002060040160009054906101000a900460ff16612c44576040517f08c379a0000000000000000000000000000000000000000000000000000000008152600401612c3b906146d1565b60405180910390fd5b600760003373ffffffffffffffffffffffffffffffffffffffff1673ffffffffffffffffffffffffffffffffffffffff168152602001908152602001600020600a01805480602002602001604051908101604052809291908181526020018280548015612cd057602002820191906000526020600020905b815481526020019060010190808311612cbc575b5050505050905090565b600033905090565b612cef838383600161304b565b505050565b6000612d008484612aa6565b90507fffffffffffffffffffffffffffffffffffffffffffffffffffffffffffffffff8114612d825781811015612d72578281836040517ffb8f41b2000000000000000000000000000000000000000000000000000000008152600401612d6993929190614f96565b60405180910390fd5b612d818484848403600061304b565b5b50505050565b600073ffffffffffffffffffffffffffffffffffffffff168373ffffffffffffffffffffffffffffffffffffffff1603612dfa5760006040517f96c6fd1e000000000000000000000000000000000000000000000000000000008152600401612df19190613af5565b60405180910390fd5b600073ffffffffffffffffffffffffffffffffffffffff168273ffffffffffffffffffffffffffffffffffffffff1603612e6c5760006040517fec442f05000000000000000000000000000000000000000000000000000000008152600401612e639190613af5565b60405180910390fd5b612e77838383613222565b505050565b600073ffffffffffffffffffffffffffffffffffffffff168273ffffffffffffffffffffffffffffffffffffffff1603612eee5760006040517fec442f05000000000000000000000000000000000000000000000000000000008152600401612ee59190613af5565b60405180910390fd5b612efa60008383613222565b5050565b612f06612cda565b73ffffffffffffffffffffffffffffffffffffffff16612f246118f5565b73ffffffffffffffffffffffffffffffffffffffff1614612f8357612f47612cda565b6040517f118cdaa7000000000000000000000000000000000000000000000000000000008152600401612f7a9190613af5565b60405180910390fd5b565b6000600560009054906101000a900473ffffffffffffffffffffffffffffffffffffffff16905081600560006101000a81548173ffffffffffffffffffffffffffffffffffffffff021916908373ffffffffffffffffffffffffffffffffffffffff1602179055508173ffffffffffffffffffffffffffffffffffffffff168173ffffffffffffffffffffffffffffffffffffffff167f8be0079c531659141344cd1fd0a4f28419497f9722a3daafe3b4186f6b6457e060405160405180910390a35050565b600073ffffffffffffffffffffffffffffffffffffffff168473ffffffffffffffffffffffffffffffffffffffff16036130bd5760006040517fe602df050000000000000000000000000000000000000000000000000000000081526004016130b49190613af5565b60405180910390fd5b600073ffffffffffffffffffffffffffffffffffffffff168373ffffffffffffffffffffffffffffffffffffffff160361312f5760006040517f94280d620000000000000000000000000000000000000000000000000000000081526004016131269190613af5565b60405180910390fd5b81600160008673ffffffffffffffffffffffffffffffffffffffff1673ffffffffffffffffffffffffffffffffffffffff16815260200190815260200160002060008573ffffffffffffffffffffffffffffffffffffffff1673ffffffffffffffffffffffffffffffffffffffff16815260200190815260200160002081905550801561321c578273ffffffffffffffffffffffffffffffffffffffff168473ffffffffffffffffffffffffffffffffffffffff167f8c5be1e5ebec7d5bd14f71427d1e84f3dd0314c0f7b2291e5b200ac8c7c3b9258460405161321391906138c6565b60405180910390a35b50505050565b600073ffffffffffffffffffffffffffffffffffffffff168373ffffffffffffffffffffffffffffffffffffffff16036132745780600260008282546132689190614fcd565b92505081905550613347565b60008060008573ffffffffffffffffffffffffffffffffffffffff1673ffffffffffffffffffffffffffffffffffffffff16815260200190815260200160002054905081811015613300578381836040517fe450d38c0000000000000000000000000000000000000000000000000000000081526004016132f793929190614f96565b60405180910390fd5b8181036000808673ffffffffffffffffffffffffffffffffffffffff1673ffffffffffffffffffffffffffffffffffffffff16815260200190815260200160002081905550505b600073ffffffffffffffffffffffffffffffffffffffff168273ffffffffffffffffffffffffffffffffffffffff160361339057806002600082825403925050819055506133dd565b806000808473ffffffffffffffffffffffffffffffffffffffff1673ffffffffffffffffffffffffffffffffffffffff168152602001908152602001600020600082825401925050819055505b8173ffffffffffffffffffffffffffffffffffffffff168373ffffffffffffffffffffffffffffffffffffffff167fddf252ad1be2c89b69c2b068fc378daa952ba7f163c4a11628f55a4df523b3ef8360405161343a91906138c6565b60405180910390a3505050565b50805461345390614332565b6000825580601f106134655750613484565b601f0160209004906000526020600020908101906134839190613586565b5b50565b6040518060600160405280600073ffffffffffffffffffffffffffffffffffffffff16815260200160608152602001600081525090565b604051806101200160405280606081526020016060815260200160008152602001600081526020016060815260200160008152602001600015158152602001600073ffffffffffffffffffffffffffffffffffffffff168152602001606081525090565b6040518060c00160405280600073ffffffffffffffffffffffffffffffffffffffff168152602001600073ffffffffffffffffffffffffffffffffffffffff1681526020016000815260200160608152602001600081526020016000151581525090565b5b8082111561359f576000816000905550600101613587565b5090565b600081519050919050565b600082825260208201905092915050565b60005b838110156135dd5780820151818401526020810190506135c2565b60008484015250505050565b6000601f19601f8301169050919050565b6000613605826135a3565b61360f81856135ae565b935061361f8185602086016135bf565b613628816135e9565b840191505092915050565b6000602082019050818103600083015261364d81846135fa565b905092915050565b600080fd5b600080fd5b600080fd5b600080fd5b600080fd5b60008083601f8401126136845761368361365f565b5b8235905067ffffffffffffffff8111156136a1576136a0613664565b5b6020830191508360018202830111156136bd576136bc613669565b5b9250929050565b6000806000806000806000806080898b0312156136e4576136e3613655565b5b600089013567ffffffffffffffff8111156137025761370161365a565b5b61370e8b828c0161366e565b9850985050602089013567ffffffffffffffff8111156137315761373061365a565b5b61373d8b828c0161366e565b9650965050604089013567ffffffffffffffff8111156137605761375f61365a565b5b61376c8b828c0161366e565b9450945050606089013567ffffffffffffffff81111561378f5761378e61365a565b5b61379b8b828c0161366e565b92509250509295985092959890939650565b600073ffffffffffffffffffffffffffffffffffffffff82169050919050565b60006137d8826137ad565b9050919050565b6137e8816137cd565b81146137f357600080fd5b50565b600081359050613805816137df565b92915050565b6000819050919050565b61381e8161380b565b811461382957600080fd5b50565b60008135905061383b81613815565b92915050565b6000806040838503121561385857613857613655565b5b6000613866858286016137f6565b92505060206138778582860161382c565b9150509250929050565b60008115159050919050565b61389681613881565b82525050565b60006020820190506138b1600083018461388d565b92915050565b6138c08161380b565b82525050565b60006020820190506138db60008301846138b7565b92915050565b6000806000606084860312156138fa576138f9613655565b5b6000613908868287016137f6565b9350506020613919868287016137f6565b925050604061392a8682870161382c565b9150509250925092565b60006020828403121561394a57613949613655565b5b60006139588482850161382c565b91505092915050565b600060ff82169050919050565b61397781613961565b82525050565b6000602082019050613992600083018461396e565b92915050565b6000602082840312156139ae576139ad613655565b5b60006139bc848285016137f6565b91505092915050565b600080604083850312156139dc576139db613655565b5b60006139ea8582860161382c565b92505060206139fb8582860161382c565b9150509250929050565b60008060008060408587031215613a1f57613a1e613655565b5b600085013567ffffffffffffffff811115613a3d57613a3c61365a565b5b613a498782880161366e565b9450945050602085013567ffffffffffffffff811115613a6c57613a6b61365a565b5b613a788782880161366e565b925092505092959194509250565b600080600060408486031215613a9f57613a9e613655565b5b6000613aad8682870161382c565b935050602084013567ffffffffffffffff811115613ace57613acd61365a565b5b613ada8682870161366e565b92509250509250925092565b613aef816137cd565b82525050565b6000602082019050613b0a6000830184613ae6565b92915050565b600081519050919050565b600082825260208201905092915050565b6000819050602082019050919050565b613b45816137cd565b82525050565b600082825260208201905092915050565b6000613b67826135a3565b613b718185613b4b565b9350613b818185602086016135bf565b613b8a816135e9565b840191505092915050565b613b9e8161380b565b82525050565b6000606083016000830151613bbc6000860182613b3c565b5060208301518482036020860152613bd48282613b5c565b9150506040830151613be96040860182613b95565b508091505092915050565b6000613c008383613ba4565b905092915050565b6000602082019050919050565b6000613c2082613b10565b613c2a8185613b1b565b935083602082028501613c3c85613b2c565b8060005b85811015613c785784840389528151613c598582613bf4565b9450613c6483613c08565b925060208a01995050600181019050613c40565b50829750879550505050505092915050565b60006020820190508181036000830152613ca48184613c15565b905092915050565b613cb581613881565b82525050565b6000610120830160008301518482036000860152613cd98282613b5c565b91505060208301518482036020860152613cf38282613b5c565b9150506040830151613d086040860182613b95565b506060830151613d1b6060860182613b95565b5060808301518482036080860152613d338282613b5c565b91505060a0830151613d4860a0860182613b95565b5060c0830151613d5b60c0860182613cac565b5060e0830151613d6e60e0860182613b3c565b50610100830151848203610100860152613d888282613b5c565b9150508091505092915050565b60006020820190508181036000830152613daf8184613cbb565b905092915050565b60008060008060008060008060008060c08b8d031215613dda57613dd9613655565b5b60008b013567ffffffffffffffff811115613df857613df761365a565b5b613e048d828e0161366e565b9a509a505060208b013567ffffffffffffffff811115613e2757613e2661365a565b5b613e338d828e0161366e565b98509850506040613e468d828e0161382c565b9650506060613e578d828e0161382c565b95505060808b013567ffffffffffffffff811115613e7857613e7761365a565b5b613e848d828e0161366e565b945094505060a08b013567ffffffffffffffff811115613ea757613ea661365a565b5b613eb38d828e0161366e565b92509250509295989b9194979a5092959850565b600081519050919050565b600082825260208201905092915050565b6000819050602082019050919050565b600060c083016000830151613f0b6000860182613b3c565b506020830151613f1e6020860182613b3c565b506040830151613f316040860182613b95565b5060608301518482036060860152613f498282613b5c565b9150506080830151613f5e6080860182613b95565b5060a0830151613f7160a0860182613cac565b508091505092915050565b6000613f888383613ef3565b905092915050565b6000602082019050919050565b6000613fa882613ec7565b613fb28185613ed2565b935083602082028501613fc485613ee3565b8060005b858110156140005784840389528151613fe18582613f7c565b9450613fec83613f90565b925060208a01995050600181019050613fc8565b50829750879550505050505092915050565b6000602082019050818103600083015261402c8184613f9d565b905092915050565b600081519050919050565b600082825260208201905092915050565b6000819050602082019050919050565b600061012083016000830151848203600086015261407e8282613b5c565b915050602083015184820360208601526140988282613b5c565b91505060408301516140ad6040860182613b95565b5060608301516140c06060860182613b95565b50608083015184820360808601526140d88282613b5c565b91505060a08301516140ed60a0860182613b95565b5060c083015161410060c0860182613cac565b5060e083015161411360e0860182613b3c565b5061010083015184820361010086015261412d8282613b5c565b9150508091505092915050565b60006141468383614060565b905092915050565b6000602082019050919050565b600061416682614034565b614170818561403f565b93508360208202850161418285614050565b8060005b858110156141be578484038952815161419f858261413a565b94506141aa8361414e565b925060208a01995050600181019050614186565b50829750879550505050505092915050565b600060208201905081810360008301526141ea818461415b565b905092915050565b6000806040838503121561420957614208613655565b5b6000614217858286016137f6565b9250506020614228858286016137f6565b9150509250929050565b600081519050919050565b600082825260208201905092915050565b6000819050602082019050919050565b600061426a8383613b95565b60208301905092915050565b6000602082019050919050565b600061428e82614232565b614298818561423d565b93506142a38361424e565b8060005b838110156142d45781516142bb888261425e565b97506142c683614276565b9250506001810190506142a7565b5085935050505092915050565b600060208201905081810360008301526142fb8184614283565b905092915050565b7f4e487b7100000000000000000000000000000000000000000000000000000000600052602260045260246000fd5b6000600282049050600182168061434a57607f821691505b60208210810361435d5761435c614303565b5b50919050565b7f5573657220616c72656164792072656769737465726564000000000000000000600082015250565b60006143996017836135ae565b91506143a482614363565b602082019050919050565b600060208201905081810360008301526143c88161438c565b9050919050565b600082905092915050565b7f4e487b7100000000000000000000000000000000000000000000000000000000600052604160045260246000fd5b60008190508160005260206000209050919050565b60006020601f8301049050919050565b600082821b905092915050565b60006008830261446b7fffffffffffffffffffffffffffffffffffffffffffffffffffffffffffffffff8261442e565b614475868361442e565b95508019841693508086168417925050509392505050565b6000819050919050565b60006144b26144ad6144a88461380b565b61448d565b61380b565b9050919050565b6000819050919050565b6144cc83614497565b6144e06144d8826144b9565b84845461443b565b825550505050565b600090565b6144f56144e8565b6145008184846144c3565b505050565b5b81811015614524576145196000826144ed565b600181019050614506565b5050565b601f8211156145695761453a81614409565b6145438461441e565b81016020851015614552578190505b61456661455e8561441e565b830182614505565b50505b505050565b600082821c905092915050565b600061458c6000198460080261456e565b1980831691505092915050565b60006145a5838361457b565b9150826002028217905092915050565b6145bf83836143cf565b67ffffffffffffffff8111156145d8576145d76143da565b5b6145e28254614332565b6145ed828285614528565b6000601f83116001811461461c576000841561460a578287013590505b6146148582614599565b86555061467c565b601f19841661462a86614409565b60005b828110156146525784890135825560018201915060208501945060208101905061462d565b8683101561466f578489013561466b601f89168261457b565b8355505b6001600288020188555050505b50505050505050565b7f55736572206e6f74207265676973746572656400000000000000000000000000600082015250565b60006146bb6013836135ae565b91506146c682614685565b602082019050919050565b600060208201905081810360008301526146ea816146ae565b9050919050565b7f4e487b7100000000000000000000000000000000000000000000000000000000600052601260045260246000fd5b7f4e487b7100000000000000000000000000000000000000000000000000000000600052601160045260246000fd5b600061475a8261380b565b91506147658361380b565b925082614775576147746146f1565b5b828204905092915050565b600061478b8261380b565b91506147968361380b565b92508282026147a48161380b565b915082820484148315176147bb576147ba614720565b5b5092915050565b60006040820190506147d760008301856138b7565b6147e460208301846138b7565b9392505050565b7f496e76616c696420696e64657800000000000000000000000000000000000000600082015250565b6000614821600d836135ae565b915061482c826147eb565b602082019050919050565b6000602082019050818103600083015261485081614814565b9050919050565b7f55736572206e6f7420617574686f72697a656420746f206275792070726f647560008201527f6374000000000000000000000000000000000000000000000000000000000000602082015250565b60006148b36022836135ae565b91506148be82614857565b604082019050919050565b600060208201905081810360008301526148e2816148a6565b9050919050565b7f4e6f7420656e6f756768207175616e7469747900000000000000000000000000600082015250565b600061491f6013836135ae565b915061492a826148e9565b602082019050919050565b6000602082019050818103600083015261494e81614912565b9050919050565b7f5468652070726f6475637420686173206265656e2072656d6f7665642066726f60008201527f6d20746865207368656c76657300000000000000000000000000000000000000602082015250565b60006149b1602d836135ae565b91506149bc82614955565b604082019050919050565b600060208201905081810360008301526149e0816149a4565b9050919050565b7f4e6f7420656e6f7567682062616c616e63650000000000000000000000000000600082015250565b6000614a1d6012836135ae565b9150614a28826149e7565b602082019050919050565b60006020820190508181036000830152614a4c81614a10565b9050919050565b6000614a5e8261380b565b9150614a698361380b565b9250828203905081811115614a8157614a80614720565b5b92915050565b614a90826135a3565b67ffffffffffffffff811115614aa957614aa86143da565b5b614ab38254614332565b614abe828285614528565b600060209050601f831160018114614af15760008415614adf578287015190505b614ae98582614599565b865550614b51565b601f198416614aff86614409565b60005b82811015614b2757848901518255600182019150602085019450602081019050614b02565b86831015614b445784890151614b40601f89168261457b565b8355505b6001600288020188555050505b505050505050565b6000614b648261380b565b91507fffffffffffffffffffffffffffffffffffffffffffffffffffffffffffffffff8203614b9657614b95614720565b5b600182019050919050565b600081905092915050565b82818337600083830152505050565b6000614bc78385614ba1565b9350614bd4838584614bac565b82840190509392505050565b6000614bed828486614bbb565b91508190509392505050565b60008154614c0681614332565b614c108186614ba1565b94506001821660008114614c2b5760018114614c4057614c73565b60ff1983168652811515820286019350614c73565b614c4985614409565b60005b83811015614c6b57815481890152600182019150602081019050614c4c565b838801955050505b50505092915050565b6000614c888284614bf9565b915081905092915050565b7f496e76616c696420757365726e616d6500000000000000000000000000000000600082015250565b6000614cc96010836135ae565b9150614cd482614c93565b602082019050919050565b60006020820190508181036000830152614cf881614cbc565b9050919050565b7f496e76616c69642070617373776f726400000000000000000000000000000000600082015250565b6000614d356010836135ae565b9150614d4082614cff565b602082019050919050565b60006020820190508181036000830152614d6481614d28565b9050919050565b7f55736572206e6f7420617574686f72697a656420746f2061646420726576696560008201527f7700000000000000000000000000000000000000000000000000000000000000602082015250565b6000614dc76021836135ae565b9150614dd282614d6b565b604082019050919050565b60006020820190508181036000830152614df681614dba565b9050919050565b7f4e487b7100000000000000000000000000000000000000000000000000000000600052603260045260246000fd5b7f4f6e6c792073656c6c6572732063616e206164642070726f6475637473000000600082015250565b6000614e62601d836135ae565b9150614e6d82614e2c565b602082019050919050565b60006020820190508181036000830152614e9181614e55565b9050919050565b600081549050614ea781614332565b9050919050565b818103614ebc575050614f94565b614ec582614e98565b67ffffffffffffffff811115614ede57614edd6143da565b5b614ee88254614332565b614ef3828285614528565b6000601f831160018114614f225760008415614f10578287015490505b614f1a8582614599565b865550614f8d565b601f198416614f3087614409565b9650614f3b86614409565b60005b82811015614f6357848901548255600182019150600185019450602081019050614f3e565b86831015614f805784890154614f7c601f89168261457b565b8355505b6001600288020188555050505b5050505050505b565b6000606082019050614fab6000830186613ae6565b614fb860208301856138b7565b614fc560408301846138b7565b949350505050565b6000614fd88261380b565b9150614fe38361380b565b9250828201905080821115614ffb57614ffa614720565b5b9291505056fea264697066735822122056db6441d24cd453804178564d4b39d6dcaa9e3c669ee3428346a6077cc6449f64736f6c63430008160033",
  "linkReferences": {},
  "deployedLinkReferences": {}
}